{
  "address": "0x93f4440843bd81fb539c36C25Dab78EdEfA6a3f0",
  "abi": [
    {
      "inputs": [
        {
          "internalType": "string",
          "name": "_name",
          "type": "string"
        },
        {
          "internalType": "string",
          "name": "_symbol",
          "type": "string"
        },
        {
          "internalType": "uint256",
          "name": "_minGasToTransfer",
          "type": "uint256"
        },
        {
          "internalType": "address",
          "name": "_layerZeroEndpoint",
          "type": "address"
        },
        {
          "internalType": "uint256",
          "name": "_startMintId",
          "type": "uint256"
        },
        {
          "internalType": "uint256",
          "name": "_endMintId",
          "type": "uint256"
        }
      ],
      "stateMutability": "nonpayable",
      "type": "constructor"
    },
    {
      "anonymous": false,
      "inputs": [
        {
          "indexed": true,
          "internalType": "address",
          "name": "owner",
          "type": "address"
        },
        {
          "indexed": true,
          "internalType": "address",
          "name": "approved",
          "type": "address"
        },
        {
          "indexed": true,
          "internalType": "uint256",
          "name": "tokenId",
          "type": "uint256"
        }
      ],
      "name": "Approval",
      "type": "event"
    },
    {
      "anonymous": false,
      "inputs": [
        {
          "indexed": true,
          "internalType": "address",
          "name": "owner",
          "type": "address"
        },
        {
          "indexed": true,
          "internalType": "address",
          "name": "operator",
          "type": "address"
        },
        {
          "indexed": false,
          "internalType": "bool",
          "name": "approved",
          "type": "bool"
        }
      ],
      "name": "ApprovalForAll",
      "type": "event"
    },
    {
      "anonymous": false,
      "inputs": [
        {
          "indexed": false,
          "internalType": "bytes32",
          "name": "_hashedPayload",
          "type": "bytes32"
        }
      ],
      "name": "CreditCleared",
      "type": "event"
    },
    {
      "anonymous": false,
      "inputs": [
        {
          "indexed": false,
          "internalType": "bytes32",
          "name": "_hashedPayload",
          "type": "bytes32"
        },
        {
          "indexed": false,
          "internalType": "bytes",
          "name": "_payload",
          "type": "bytes"
        }
      ],
      "name": "CreditStored",
      "type": "event"
    },
    {
      "anonymous": false,
      "inputs": [
        {
          "indexed": false,
          "internalType": "uint16",
          "name": "_srcChainId",
          "type": "uint16"
        },
        {
          "indexed": false,
          "internalType": "bytes",
          "name": "_srcAddress",
          "type": "bytes"
        },
        {
          "indexed": false,
          "internalType": "uint64",
          "name": "_nonce",
          "type": "uint64"
        },
        {
          "indexed": false,
          "internalType": "bytes",
          "name": "_payload",
          "type": "bytes"
        },
        {
          "indexed": false,
          "internalType": "bytes",
          "name": "_reason",
          "type": "bytes"
        }
      ],
      "name": "MessageFailed",
      "type": "event"
    },
    {
      "anonymous": false,
      "inputs": [
        {
          "indexed": true,
          "internalType": "address",
          "name": "previousOwner",
          "type": "address"
        },
        {
          "indexed": true,
          "internalType": "address",
          "name": "newOwner",
          "type": "address"
        }
      ],
      "name": "OwnershipTransferred",
      "type": "event"
    },
    {
      "anonymous": false,
      "inputs": [
        {
          "indexed": true,
          "internalType": "uint16",
          "name": "_srcChainId",
          "type": "uint16"
        },
        {
          "indexed": true,
          "internalType": "bytes",
          "name": "_srcAddress",
          "type": "bytes"
        },
        {
          "indexed": true,
          "internalType": "address",
          "name": "_toAddress",
          "type": "address"
        },
        {
          "indexed": false,
          "internalType": "uint256[]",
          "name": "_tokenIds",
          "type": "uint256[]"
        }
      ],
      "name": "ReceiveFromChain",
      "type": "event"
    },
    {
      "anonymous": false,
      "inputs": [
        {
          "indexed": false,
          "internalType": "uint16",
          "name": "_srcChainId",
          "type": "uint16"
        },
        {
          "indexed": false,
          "internalType": "bytes",
          "name": "_srcAddress",
          "type": "bytes"
        },
        {
          "indexed": false,
          "internalType": "uint64",
          "name": "_nonce",
          "type": "uint64"
        },
        {
          "indexed": false,
          "internalType": "bytes32",
          "name": "_payloadHash",
          "type": "bytes32"
        }
      ],
      "name": "RetryMessageSuccess",
      "type": "event"
    },
    {
      "anonymous": false,
      "inputs": [
        {
          "indexed": true,
          "internalType": "uint16",
          "name": "_dstChainId",
          "type": "uint16"
        },
        {
          "indexed": true,
          "internalType": "address",
          "name": "_from",
          "type": "address"
        },
        {
          "indexed": true,
          "internalType": "bytes",
          "name": "_toAddress",
          "type": "bytes"
        },
        {
          "indexed": false,
          "internalType": "uint256[]",
          "name": "_tokenIds",
          "type": "uint256[]"
        }
      ],
      "name": "SendToChain",
      "type": "event"
    },
    {
      "anonymous": false,
      "inputs": [
        {
          "indexed": false,
          "internalType": "uint16",
          "name": "_dstChainId",
          "type": "uint16"
        },
        {
          "indexed": false,
          "internalType": "uint256",
          "name": "_dstChainIdToBatchLimit",
          "type": "uint256"
        }
      ],
      "name": "SetDstChainIdToBatchLimit",
      "type": "event"
    },
    {
      "anonymous": false,
      "inputs": [
        {
          "indexed": false,
          "internalType": "uint16",
          "name": "_dstChainId",
          "type": "uint16"
        },
        {
          "indexed": false,
          "internalType": "uint256",
          "name": "_dstChainIdToTransferGas",
          "type": "uint256"
        }
      ],
      "name": "SetDstChainIdToTransferGas",
      "type": "event"
    },
    {
      "anonymous": false,
      "inputs": [
        {
          "indexed": false,
          "internalType": "uint16",
          "name": "_dstChainId",
          "type": "uint16"
        },
        {
          "indexed": false,
          "internalType": "uint16",
          "name": "_type",
          "type": "uint16"
        },
        {
          "indexed": false,
          "internalType": "uint256",
          "name": "_minDstGas",
          "type": "uint256"
        }
      ],
      "name": "SetMinDstGas",
      "type": "event"
    },
    {
      "anonymous": false,
      "inputs": [
        {
          "indexed": false,
          "internalType": "uint256",
          "name": "_minGasToTransferAndStore",
          "type": "uint256"
        }
      ],
      "name": "SetMinGasToTransferAndStore",
      "type": "event"
    },
    {
      "anonymous": false,
      "inputs": [
        {
          "indexed": false,
          "internalType": "address",
          "name": "precrime",
          "type": "address"
        }
      ],
      "name": "SetPrecrime",
      "type": "event"
    },
    {
      "anonymous": false,
      "inputs": [
        {
          "indexed": false,
          "internalType": "uint16",
          "name": "_remoteChainId",
          "type": "uint16"
        },
        {
          "indexed": false,
          "internalType": "bytes",
          "name": "_path",
          "type": "bytes"
        }
      ],
      "name": "SetTrustedRemote",
      "type": "event"
    },
    {
      "anonymous": false,
      "inputs": [
        {
          "indexed": false,
          "internalType": "uint16",
          "name": "_remoteChainId",
          "type": "uint16"
        },
        {
          "indexed": false,
          "internalType": "bytes",
          "name": "_remoteAddress",
          "type": "bytes"
        }
      ],
      "name": "SetTrustedRemoteAddress",
      "type": "event"
    },
    {
      "anonymous": false,
      "inputs": [
        {
          "indexed": true,
          "internalType": "address",
          "name": "from",
          "type": "address"
        },
        {
          "indexed": true,
          "internalType": "address",
          "name": "to",
          "type": "address"
        },
        {
          "indexed": true,
          "internalType": "uint256",
          "name": "tokenId",
          "type": "uint256"
        }
      ],
      "name": "Transfer",
      "type": "event"
    },
    {
      "inputs": [],
      "name": "DEFAULT_PAYLOAD_SIZE_LIMIT",
      "outputs": [
        {
          "internalType": "uint256",
          "name": "",
          "type": "uint256"
        }
      ],
      "stateMutability": "view",
      "type": "function"
    },
    {
      "inputs": [],
      "name": "FUNCTION_TYPE_SEND",
      "outputs": [
        {
          "internalType": "uint16",
          "name": "",
          "type": "uint16"
        }
      ],
      "stateMutability": "view",
      "type": "function"
    },
    {
      "inputs": [
        {
          "internalType": "address",
          "name": "to",
          "type": "address"
        },
        {
          "internalType": "uint256",
          "name": "tokenId",
          "type": "uint256"
        }
      ],
      "name": "approve",
      "outputs": [],
      "stateMutability": "nonpayable",
      "type": "function"
    },
    {
      "inputs": [
        {
          "internalType": "address",
          "name": "owner",
          "type": "address"
        }
      ],
      "name": "balanceOf",
      "outputs": [
        {
          "internalType": "uint256",
          "name": "",
          "type": "uint256"
        }
      ],
      "stateMutability": "view",
      "type": "function"
    },
    {
      "inputs": [
        {
          "internalType": "uint16",
          "name": "_dstChainId",
          "type": "uint16"
        },
        {
          "internalType": "address",
          "name": "_zroPaymentAddress",
          "type": "address"
        },
        {
          "internalType": "bytes",
          "name": "_adapterParams",
          "type": "bytes"
        }
      ],
      "name": "bridgeGas",
      "outputs": [],
      "stateMutability": "payable",
      "type": "function"
    },
    {
      "inputs": [
        {
          "internalType": "bytes",
          "name": "_payload",
          "type": "bytes"
        }
      ],
      "name": "clearCredits",
      "outputs": [],
      "stateMutability": "nonpayable",
      "type": "function"
    },
    {
      "inputs": [
        {
          "internalType": "uint16",
          "name": "",
          "type": "uint16"
        }
      ],
      "name": "dstChainIdToBatchLimit",
      "outputs": [
        {
          "internalType": "uint256",
          "name": "",
          "type": "uint256"
        }
      ],
      "stateMutability": "view",
      "type": "function"
    },
    {
      "inputs": [
        {
          "internalType": "uint16",
          "name": "",
          "type": "uint16"
        }
      ],
      "name": "dstChainIdToTransferGas",
      "outputs": [
        {
          "internalType": "uint256",
          "name": "",
          "type": "uint256"
        }
      ],
      "stateMutability": "view",
      "type": "function"
    },
    {
      "inputs": [
        {
          "internalType": "uint16",
          "name": "_dstChainId",
          "type": "uint16"
        },
        {
          "internalType": "bool",
          "name": "_useZro",
          "type": "bool"
        },
        {
          "internalType": "bytes",
          "name": "_adapterParams",
          "type": "bytes"
        }
      ],
      "name": "estimateGasBridgeFee",
      "outputs": [
        {
          "internalType": "uint256",
          "name": "nativeFee",
          "type": "uint256"
        },
        {
          "internalType": "uint256",
          "name": "zroFee",
          "type": "uint256"
        }
      ],
      "stateMutability": "view",
      "type": "function"
    },
    {
      "inputs": [
        {
          "internalType": "uint16",
          "name": "_dstChainId",
          "type": "uint16"
        },
        {
          "internalType": "bytes",
          "name": "_toAddress",
          "type": "bytes"
        },
        {
          "internalType": "uint256[]",
          "name": "_tokenIds",
          "type": "uint256[]"
        },
        {
          "internalType": "bool",
          "name": "_useZro",
          "type": "bool"
        },
        {
          "internalType": "bytes",
          "name": "_adapterParams",
          "type": "bytes"
        }
      ],
      "name": "estimateSendBatchFee",
      "outputs": [
        {
          "internalType": "uint256",
          "name": "nativeFee",
          "type": "uint256"
        },
        {
          "internalType": "uint256",
          "name": "zroFee",
          "type": "uint256"
        }
      ],
      "stateMutability": "view",
      "type": "function"
    },
    {
      "inputs": [
        {
          "internalType": "uint16",
          "name": "_dstChainId",
          "type": "uint16"
        },
        {
          "internalType": "bytes",
          "name": "_toAddress",
          "type": "bytes"
        },
        {
          "internalType": "uint256",
          "name": "_tokenId",
          "type": "uint256"
        },
        {
          "internalType": "bool",
          "name": "_useZro",
          "type": "bool"
        },
        {
          "internalType": "bytes",
          "name": "_adapterParams",
          "type": "bytes"
        }
      ],
      "name": "estimateSendFee",
      "outputs": [
        {
          "internalType": "uint256",
          "name": "nativeFee",
          "type": "uint256"
        },
        {
          "internalType": "uint256",
          "name": "zroFee",
          "type": "uint256"
        }
      ],
      "stateMutability": "view",
      "type": "function"
    },
    {
      "inputs": [
        {
          "internalType": "uint16",
          "name": "",
          "type": "uint16"
        },
        {
          "internalType": "bytes",
          "name": "",
          "type": "bytes"
        },
        {
          "internalType": "uint64",
          "name": "",
          "type": "uint64"
        }
      ],
      "name": "failedMessages",
      "outputs": [
        {
          "internalType": "bytes32",
          "name": "",
          "type": "bytes32"
        }
      ],
      "stateMutability": "view",
      "type": "function"
    },
    {
      "inputs": [
        {
          "internalType": "uint16",
          "name": "_srcChainId",
          "type": "uint16"
        },
        {
          "internalType": "bytes",
          "name": "_srcAddress",
          "type": "bytes"
        }
      ],
      "name": "forceResumeReceive",
      "outputs": [],
      "stateMutability": "nonpayable",
      "type": "function"
    },
    {
      "inputs": [
        {
          "internalType": "uint256",
          "name": "tokenId",
          "type": "uint256"
        }
      ],
      "name": "getApproved",
      "outputs": [
        {
          "internalType": "address",
          "name": "",
          "type": "address"
        }
      ],
      "stateMutability": "view",
      "type": "function"
    },
    {
      "inputs": [
        {
          "internalType": "uint16",
          "name": "_version",
          "type": "uint16"
        },
        {
          "internalType": "uint16",
          "name": "_chainId",
          "type": "uint16"
        },
        {
          "internalType": "address",
          "name": "",
          "type": "address"
        },
        {
          "internalType": "uint256",
          "name": "_configType",
          "type": "uint256"
        }
      ],
      "name": "getConfig",
      "outputs": [
        {
          "internalType": "bytes",
          "name": "",
          "type": "bytes"
        }
      ],
      "stateMutability": "view",
      "type": "function"
    },
    {
      "inputs": [
        {
          "internalType": "uint16",
          "name": "_remoteChainId",
          "type": "uint16"
        }
      ],
      "name": "getTrustedRemoteAddress",
      "outputs": [
        {
          "internalType": "bytes",
          "name": "",
          "type": "bytes"
        }
      ],
      "stateMutability": "view",
      "type": "function"
    },
    {
      "inputs": [
        {
          "internalType": "address",
          "name": "owner",
          "type": "address"
        },
        {
          "internalType": "address",
          "name": "operator",
          "type": "address"
        }
      ],
      "name": "isApprovedForAll",
      "outputs": [
        {
          "internalType": "bool",
          "name": "",
          "type": "bool"
        }
      ],
      "stateMutability": "view",
      "type": "function"
    },
    {
      "inputs": [],
      "name": "isReveal",
      "outputs": [
        {
          "internalType": "bool",
          "name": "",
          "type": "bool"
        }
      ],
      "stateMutability": "view",
      "type": "function"
    },
    {
      "inputs": [
        {
          "internalType": "uint16",
          "name": "_srcChainId",
          "type": "uint16"
        },
        {
          "internalType": "bytes",
          "name": "_srcAddress",
          "type": "bytes"
        }
      ],
      "name": "isTrustedRemote",
      "outputs": [
        {
          "internalType": "bool",
          "name": "",
          "type": "bool"
        }
      ],
      "stateMutability": "view",
      "type": "function"
    },
    {
      "inputs": [],
      "name": "lzEndpoint",
      "outputs": [
        {
          "internalType": "contract ILayerZeroEndpoint",
          "name": "",
          "type": "address"
        }
      ],
      "stateMutability": "view",
      "type": "function"
    },
    {
      "inputs": [
        {
          "internalType": "uint16",
          "name": "_srcChainId",
          "type": "uint16"
        },
        {
          "internalType": "bytes",
          "name": "_srcAddress",
          "type": "bytes"
        },
        {
          "internalType": "uint64",
          "name": "_nonce",
          "type": "uint64"
        },
        {
          "internalType": "bytes",
          "name": "_payload",
          "type": "bytes"
        }
      ],
      "name": "lzReceive",
      "outputs": [],
      "stateMutability": "nonpayable",
      "type": "function"
    },
    {
      "inputs": [],
      "name": "magicURI",
      "outputs": [
        {
          "internalType": "string",
          "name": "",
          "type": "string"
        }
      ],
      "stateMutability": "view",
      "type": "function"
    },
    {
      "inputs": [],
      "name": "maxMintId",
      "outputs": [
        {
          "internalType": "uint256",
          "name": "",
          "type": "uint256"
        }
      ],
      "stateMutability": "view",
      "type": "function"
    },
    {
      "inputs": [
        {
          "internalType": "uint16",
          "name": "",
          "type": "uint16"
        },
        {
          "internalType": "uint16",
          "name": "",
          "type": "uint16"
        }
      ],
      "name": "minDstGasLookup",
      "outputs": [
        {
          "internalType": "uint256",
          "name": "",
          "type": "uint256"
        }
      ],
      "stateMutability": "view",
      "type": "function"
    },
    {
      "inputs": [],
      "name": "minGasToTransferAndStore",
      "outputs": [
        {
          "internalType": "uint256",
          "name": "",
          "type": "uint256"
        }
      ],
      "stateMutability": "view",
      "type": "function"
    },
    {
      "inputs": [],
      "name": "mint",
      "outputs": [],
      "stateMutability": "payable",
      "type": "function"
    },
    {
      "inputs": [],
      "name": "mintPrice",
      "outputs": [
        {
          "internalType": "uint256",
          "name": "",
          "type": "uint256"
        }
      ],
      "stateMutability": "view",
      "type": "function"
    },
    {
      "inputs": [],
      "name": "name",
      "outputs": [
        {
          "internalType": "string",
          "name": "",
          "type": "string"
        }
      ],
      "stateMutability": "view",
      "type": "function"
    },
    {
      "inputs": [],
      "name": "nextMintId",
      "outputs": [
        {
          "internalType": "uint256",
          "name": "",
          "type": "uint256"
        }
      ],
      "stateMutability": "view",
      "type": "function"
    },
    {
      "inputs": [
        {
          "internalType": "uint16",
          "name": "_srcChainId",
          "type": "uint16"
        },
        {
          "internalType": "bytes",
          "name": "_srcAddress",
          "type": "bytes"
        },
        {
          "internalType": "uint64",
          "name": "_nonce",
          "type": "uint64"
        },
        {
          "internalType": "bytes",
          "name": "_payload",
          "type": "bytes"
        }
      ],
      "name": "nonblockingLzReceive",
      "outputs": [],
      "stateMutability": "nonpayable",
      "type": "function"
    },
    {
      "inputs": [],
      "name": "owner",
      "outputs": [
        {
          "internalType": "address",
          "name": "",
          "type": "address"
        }
      ],
      "stateMutability": "view",
      "type": "function"
    },
    {
      "inputs": [
        {
          "internalType": "uint256",
          "name": "tokenId",
          "type": "uint256"
        }
      ],
      "name": "ownerOf",
      "outputs": [
        {
          "internalType": "address",
          "name": "",
          "type": "address"
        }
      ],
      "stateMutability": "view",
      "type": "function"
    },
    {
      "inputs": [
        {
          "internalType": "uint16",
          "name": "",
          "type": "uint16"
        }
      ],
      "name": "payloadSizeLimitLookup",
      "outputs": [
        {
          "internalType": "uint256",
          "name": "",
          "type": "uint256"
        }
      ],
      "stateMutability": "view",
      "type": "function"
    },
    {
      "inputs": [],
      "name": "precrime",
      "outputs": [
        {
          "internalType": "address",
          "name": "",
          "type": "address"
        }
      ],
      "stateMutability": "view",
      "type": "function"
    },
    {
      "inputs": [],
      "name": "renounceOwnership",
      "outputs": [],
      "stateMutability": "nonpayable",
      "type": "function"
    },
    {
      "inputs": [
        {
          "internalType": "uint16",
          "name": "_srcChainId",
          "type": "uint16"
        },
        {
          "internalType": "bytes",
          "name": "_srcAddress",
          "type": "bytes"
        },
        {
          "internalType": "uint64",
          "name": "_nonce",
          "type": "uint64"
        },
        {
          "internalType": "bytes",
          "name": "_payload",
          "type": "bytes"
        }
      ],
      "name": "retryMessage",
      "outputs": [],
      "stateMutability": "payable",
      "type": "function"
    },
    {
      "inputs": [
        {
          "internalType": "address",
          "name": "from",
          "type": "address"
        },
        {
          "internalType": "address",
          "name": "to",
          "type": "address"
        },
        {
          "internalType": "uint256",
          "name": "tokenId",
          "type": "uint256"
        }
      ],
      "name": "safeTransferFrom",
      "outputs": [],
      "stateMutability": "nonpayable",
      "type": "function"
    },
    {
      "inputs": [
        {
          "internalType": "address",
          "name": "from",
          "type": "address"
        },
        {
          "internalType": "address",
          "name": "to",
          "type": "address"
        },
        {
          "internalType": "uint256",
          "name": "tokenId",
          "type": "uint256"
        },
        {
          "internalType": "bytes",
          "name": "data",
          "type": "bytes"
        }
      ],
      "name": "safeTransferFrom",
      "outputs": [],
      "stateMutability": "nonpayable",
      "type": "function"
    },
    {
      "inputs": [
        {
          "internalType": "address",
          "name": "_from",
          "type": "address"
        },
        {
          "internalType": "uint16",
          "name": "_dstChainId",
          "type": "uint16"
        },
        {
          "internalType": "bytes",
          "name": "_toAddress",
          "type": "bytes"
        },
        {
          "internalType": "uint256[]",
          "name": "_tokenIds",
          "type": "uint256[]"
        },
        {
          "internalType": "address payable",
          "name": "_refundAddress",
          "type": "address"
        },
        {
          "internalType": "address",
          "name": "_zroPaymentAddress",
          "type": "address"
        },
        {
          "internalType": "bytes",
          "name": "_adapterParams",
          "type": "bytes"
        }
      ],
      "name": "sendBatchFrom",
      "outputs": [],
      "stateMutability": "payable",
      "type": "function"
    },
    {
      "inputs": [
        {
          "internalType": "address",
          "name": "_from",
          "type": "address"
        },
        {
          "internalType": "uint16",
          "name": "_dstChainId",
          "type": "uint16"
        },
        {
          "internalType": "bytes",
          "name": "_toAddress",
          "type": "bytes"
        },
        {
          "internalType": "uint256",
          "name": "_tokenId",
          "type": "uint256"
        },
        {
          "internalType": "address payable",
          "name": "_refundAddress",
          "type": "address"
        },
        {
          "internalType": "address",
          "name": "_zroPaymentAddress",
          "type": "address"
        },
        {
          "internalType": "bytes",
          "name": "_adapterParams",
          "type": "bytes"
        }
      ],
      "name": "sendFrom",
      "outputs": [],
      "stateMutability": "payable",
      "type": "function"
    },
    {
      "inputs": [
        {
          "internalType": "address",
          "name": "operator",
          "type": "address"
        },
        {
          "internalType": "bool",
          "name": "approved",
          "type": "bool"
        }
      ],
      "name": "setApprovalForAll",
      "outputs": [],
      "stateMutability": "nonpayable",
      "type": "function"
    },
    {
      "inputs": [
        {
          "internalType": "uint16",
          "name": "_version",
          "type": "uint16"
        },
        {
          "internalType": "uint16",
          "name": "_chainId",
          "type": "uint16"
        },
        {
          "internalType": "uint256",
          "name": "_configType",
          "type": "uint256"
        },
        {
          "internalType": "bytes",
          "name": "_config",
          "type": "bytes"
        }
      ],
      "name": "setConfig",
      "outputs": [],
      "stateMutability": "nonpayable",
      "type": "function"
    },
    {
      "inputs": [
        {
          "internalType": "uint16",
          "name": "_dstChainId",
          "type": "uint16"
        },
        {
          "internalType": "uint256",
          "name": "_dstChainIdToBatchLimit",
          "type": "uint256"
        }
      ],
      "name": "setDstChainIdToBatchLimit",
      "outputs": [],
      "stateMutability": "nonpayable",
      "type": "function"
    },
    {
      "inputs": [
        {
          "internalType": "uint16",
          "name": "_dstChainId",
          "type": "uint16"
        },
        {
          "internalType": "uint256",
          "name": "_dstChainIdToTransferGas",
          "type": "uint256"
        }
      ],
      "name": "setDstChainIdToTransferGas",
      "outputs": [],
      "stateMutability": "nonpayable",
      "type": "function"
    },
    {
      "inputs": [
        {
          "internalType": "string",
          "name": "_magicURI",
          "type": "string"
        }
      ],
      "name": "setMagicURI",
      "outputs": [],
      "stateMutability": "nonpayable",
      "type": "function"
    },
    {
      "inputs": [
        {
          "internalType": "uint16",
          "name": "_dstChainId",
          "type": "uint16"
        },
        {
          "internalType": "uint16",
          "name": "_packetType",
          "type": "uint16"
        },
        {
          "internalType": "uint256",
          "name": "_minGas",
          "type": "uint256"
        }
      ],
      "name": "setMinDstGas",
      "outputs": [],
      "stateMutability": "nonpayable",
      "type": "function"
    },
    {
      "inputs": [
        {
          "internalType": "uint256",
          "name": "_minGasToTransferAndStore",
          "type": "uint256"
        }
      ],
      "name": "setMinGasToTransferAndStore",
      "outputs": [],
      "stateMutability": "nonpayable",
      "type": "function"
    },
    {
      "inputs": [
        {
          "internalType": "uint16",
          "name": "_dstChainId",
          "type": "uint16"
        },
        {
          "internalType": "uint256",
          "name": "_size",
          "type": "uint256"
        }
      ],
      "name": "setPayloadSizeLimit",
      "outputs": [],
      "stateMutability": "nonpayable",
      "type": "function"
    },
    {
      "inputs": [
        {
          "internalType": "address",
          "name": "_precrime",
          "type": "address"
        }
      ],
      "name": "setPrecrime",
      "outputs": [],
      "stateMutability": "nonpayable",
      "type": "function"
    },
    {
      "inputs": [
        {
          "internalType": "uint256",
          "name": "_price",
          "type": "uint256"
        }
      ],
      "name": "setPrice",
      "outputs": [],
      "stateMutability": "nonpayable",
      "type": "function"
    },
    {
      "inputs": [
        {
          "internalType": "uint16",
          "name": "_version",
          "type": "uint16"
        }
      ],
      "name": "setReceiveVersion",
      "outputs": [],
      "stateMutability": "nonpayable",
      "type": "function"
    },
    {
      "inputs": [],
      "name": "setReveal",
      "outputs": [],
      "stateMutability": "nonpayable",
      "type": "function"
    },
    {
      "inputs": [
        {
          "internalType": "uint16",
          "name": "_version",
          "type": "uint16"
        }
      ],
      "name": "setSendVersion",
      "outputs": [],
      "stateMutability": "nonpayable",
      "type": "function"
    },
    {
      "inputs": [
        {
          "internalType": "uint16",
          "name": "_remoteChainId",
          "type": "uint16"
        },
        {
          "internalType": "bytes",
          "name": "_path",
          "type": "bytes"
        }
      ],
      "name": "setTrustedRemote",
      "outputs": [],
      "stateMutability": "nonpayable",
      "type": "function"
    },
    {
      "inputs": [
        {
          "internalType": "uint16",
          "name": "_remoteChainId",
          "type": "uint16"
        },
        {
          "internalType": "bytes",
          "name": "_remoteAddress",
          "type": "bytes"
        }
      ],
      "name": "setTrustedRemoteAddress",
      "outputs": [],
      "stateMutability": "nonpayable",
      "type": "function"
    },
    {
      "inputs": [
        {
          "internalType": "bytes32",
          "name": "",
          "type": "bytes32"
        }
      ],
      "name": "storedCredits",
      "outputs": [
        {
          "internalType": "uint16",
          "name": "srcChainId",
          "type": "uint16"
        },
        {
          "internalType": "address",
          "name": "toAddress",
          "type": "address"
        },
        {
          "internalType": "uint256",
          "name": "index",
          "type": "uint256"
        },
        {
          "internalType": "bool",
          "name": "creditsRemain",
          "type": "bool"
        }
      ],
      "stateMutability": "view",
      "type": "function"
    },
    {
      "inputs": [
        {
          "internalType": "bytes4",
          "name": "interfaceId",
          "type": "bytes4"
        }
      ],
      "name": "supportsInterface",
      "outputs": [
        {
          "internalType": "bool",
          "name": "",
          "type": "bool"
        }
      ],
      "stateMutability": "view",
      "type": "function"
    },
    {
      "inputs": [],
      "name": "symbol",
      "outputs": [
        {
          "internalType": "string",
          "name": "",
          "type": "string"
        }
      ],
      "stateMutability": "view",
      "type": "function"
    },
    {
      "inputs": [
        {
          "internalType": "uint256",
          "name": "index",
          "type": "uint256"
        }
      ],
      "name": "tokenByIndex",
      "outputs": [
        {
          "internalType": "uint256",
          "name": "",
          "type": "uint256"
        }
      ],
      "stateMutability": "view",
      "type": "function"
    },
    {
      "inputs": [
        {
          "internalType": "address",
          "name": "owner",
          "type": "address"
        },
        {
          "internalType": "uint256",
          "name": "index",
          "type": "uint256"
        }
      ],
      "name": "tokenOfOwnerByIndex",
      "outputs": [
        {
          "internalType": "uint256",
          "name": "",
          "type": "uint256"
        }
      ],
      "stateMutability": "view",
      "type": "function"
    },
    {
      "inputs": [
        {
          "internalType": "uint256",
          "name": "tokenId",
          "type": "uint256"
        }
      ],
      "name": "tokenURI",
      "outputs": [
        {
          "internalType": "string",
          "name": "",
          "type": "string"
        }
      ],
      "stateMutability": "view",
      "type": "function"
    },
    {
      "inputs": [],
      "name": "totalSupply",
      "outputs": [
        {
          "internalType": "uint256",
          "name": "",
          "type": "uint256"
        }
      ],
      "stateMutability": "view",
      "type": "function"
    },
    {
      "inputs": [
        {
          "internalType": "address",
          "name": "from",
          "type": "address"
        },
        {
          "internalType": "address",
          "name": "to",
          "type": "address"
        },
        {
          "internalType": "uint256",
          "name": "tokenId",
          "type": "uint256"
        }
      ],
      "name": "transferFrom",
      "outputs": [],
      "stateMutability": "nonpayable",
      "type": "function"
    },
    {
      "inputs": [
        {
          "internalType": "address",
          "name": "newOwner",
          "type": "address"
        }
      ],
      "name": "transferOwnership",
      "outputs": [],
      "stateMutability": "nonpayable",
      "type": "function"
    },
    {
      "inputs": [
        {
          "internalType": "uint16",
          "name": "",
          "type": "uint16"
        }
      ],
      "name": "trustedRemoteLookup",
      "outputs": [
        {
          "internalType": "bytes",
          "name": "",
          "type": "bytes"
        }
      ],
      "stateMutability": "view",
      "type": "function"
    },
    {
      "inputs": [],
      "name": "withdrawFees",
      "outputs": [],
      "stateMutability": "nonpayable",
      "type": "function"
    }
  ],
  "transactionHash": "0xe2ecd43588599805946a32df1981a806eaabc3e0d0d6511acd9a82c2c6b52367",
  "args": [
    "LayerSync ONFT",
    "LSN",
    150000,
    "0x9740FF91F1985D8d2B71494aE1A2f723bb3Ed9E4",
    105000001,
    110000000
  ],
  "numDeployments": 1,
  "solcInputHash": "db60af080569b86a784f8d37b851064a",
  "bytecode": "0x60a06040523480156200001157600080fd5b5060405162005535380380620055358339810160408190526200003491620002c6565b85858585838383838080620000493362000103565b6001600160a01b031660805250600160065581620000b95760405162461bcd60e51b8152602060048201526024808201527f6d696e476173546f5472616e73666572416e6453746f7265206d7573742062656044820152630203e20360e41b606482015260840160405180910390fd5b506007558151620000d290600b90602085019062000153565b508051620000e890600c90602084019062000153565b50505060179590955550505060185550620003ac9350505050565b600080546001600160a01b038381166001600160a01b0319831681178455604051919092169283917f8be0079c531659141344cd1fd0a4f28419497f9722a3daafe3b4186f6b6457e09190a35050565b82805462000161906200036f565b90600052602060002090601f016020900481019282620001855760008555620001d0565b82601f10620001a057805160ff1916838001178555620001d0565b82800160010185558215620001d0579182015b82811115620001d0578251825591602001919060010190620001b3565b50620001de929150620001e2565b5090565b5b80821115620001de5760008155600101620001e3565b634e487b7160e01b600052604160045260246000fd5b600082601f8301126200022157600080fd5b81516001600160401b03808211156200023e576200023e620001f9565b604051601f8301601f19908116603f01168101908282118183101715620002695762000269620001f9565b816040528381526020925086838588010111156200028657600080fd5b600091505b83821015620002aa57858201830151818301840152908201906200028b565b83821115620002bc5760008385830101525b9695505050505050565b60008060008060008060c08789031215620002e057600080fd5b86516001600160401b0380821115620002f857600080fd5b620003068a838b016200020f565b975060208901519150808211156200031d57600080fd5b506200032c89828a016200020f565b604089015160608a0151919750955090506001600160a01b03811681146200035357600080fd5b809350506080870151915060a087015190509295509295509295565b600181811c908216806200038457607f821691505b60208210811415620003a657634e487b7160e01b600052602260045260246000fd5b50919050565b60805161512e6200040760003960008181610a6a01528181610cbe01528181610fc201528181611247015281816115610152818161201c0152818161238b015281816125680152818161269b0152612d30015261512e6000f3fe6080604052600436106103d85760003560e01c80637533d788116101fd578063b88d4fde11610118578063df2a5b3b116100ab578063f23536411161007a578063f235364114610c14578063f2fde38b14610c34578063f5ecbdbc14610c54578063fa25f9b614610c74578063fae4c7f914610ca157600080fd5b8063df2a5b3b14610b75578063e1d4c87014610b95578063e985e9c514610bab578063eb8d72b714610bf457600080fd5b8063cbed8b9c116100e7578063cbed8b9c14610b02578063d12473a514610b22578063d1deba1f14610b42578063da09f15d14610b5557600080fd5b8063b88d4fde14610a8c578063baf3292d14610aac578063c446183414610acc578063c87b56dd14610ae257600080fd5b80639c1734b111610190578063a6c3d1651161015f578063a6c3d165146109fd578063ab3ffb9314610a1d578063af3fb21c14610a30578063b353aaa714610a5857600080fd5b80639c1734b1146109885780639ea5d6b11461099d5780639f38369a146109bd578063a22cb465146109dd57600080fd5b80638ffa1f2a116101cc5780638ffa1f2a1461091357806391b7f5ed14610933578063950c8a741461095357806395d89b411461097357600080fd5b80637533d7881461088857806376645315146108a85780638cfd8f5c146108bd5780638da5cb5b146108f557600080fd5b80633d8b38f6116102f85780635154c0b41161028b57806366ad5c8a1161025a57806366ad5c8a146108075780636817c76c146108275780636aa99da31461083d57806370a0823114610853578063715018a61461087357600080fd5b80635154c0b41461077257806351905636146107855780635b8c41e6146107985780636352211e146107e757600080fd5b8063476343ee116102c7578063476343ee146106fa578063482881901461070f5780634ac3f4ff146107255780634f6ccce71461075257600080fd5b80633d8b38f61461066d5780633f1f4fa41461068d57806342842e0e146106ba57806342d65a8d146106da57600080fd5b806310ddb1371161037057806323b872dd1161033f57806323b872dd146105d85780632a205e3d146105f85780632f745c591461062d5780633bee94531461064d57600080fd5b806310ddb1371461050e5780631249c58b1461052e57806318160ddd1461053657806322a3ecf91461055557600080fd5b8063081812fc116103ac578063081812fc14610476578063095ea7b3146104ae5780630b4cad4c146104ce5780630df37483146104ee57600080fd5b80621d3567146103dd57806301ffc9a7146103ff57806306fdde031461043457806307e0db1714610456575b600080fd5b3480156103e957600080fd5b506103fd6103f83660046140ad565b610cbb565b005b34801561040b57600080fd5b5061041f61041a366004614156565b610eec565b60405190151581526020015b60405180910390f35b34801561044057600080fd5b50610449610f0f565b60405161042b91906141cb565b34801561046257600080fd5b506103fd6104713660046141de565b610fa1565b34801561048257600080fd5b506104966104913660046141f9565b61102a565b6040516001600160a01b03909116815260200161042b565b3480156104ba57600080fd5b506103fd6104c9366004614232565b611051565b3480156104da57600080fd5b506103fd6104e93660046141f9565b611167565b3480156104fa57600080fd5b506103fd61050936600461425e565b611207565b34801561051a57600080fd5b506103fd6105293660046141de565b611226565b6103fd61127e565b34801561054257600080fd5b506013545b60405190815260200161042b565b34801561056157600080fd5b506105a96105703660046141f9565b600a6020526000908152604090208054600182015460029092015461ffff821692620100009092046001600160a01b0316919060ff1684565b6040805161ffff90951685526001600160a01b039093166020850152918301521515606082015260800161042b565b3480156105e457600080fd5b506103fd6105f336600461427a565b61134e565b34801561060457600080fd5b50610618610613366004614396565b611380565b6040805192835260208301919091520161042b565b34801561063957600080fd5b50610547610648366004614232565b6113a6565b34801561065957600080fd5b506103fd610668366004614424565b61143c565b34801561067957600080fd5b5061041f61068836600461446c565b61145b565b34801561069957600080fd5b506105476106a83660046141de565b60036020526000908152604090205481565b3480156106c657600080fd5b506103fd6106d536600461427a565b611527565b3480156106e657600080fd5b506103fd6106f536600461446c565b611542565b34801561070657600080fd5b506103fd6115c8565b34801561071b57600080fd5b5061054760075481565b34801561073157600080fd5b506105476107403660046141de565b60086020526000908152604090205481565b34801561075e57600080fd5b5061054761076d3660046141f9565b611650565b6103fd6107803660046144be565b6116e3565b6103fd61079336600461451d565b611737565b3480156107a457600080fd5b506105476107b33660046145d6565b6005602090815260009384526040808520845180860184018051928152908401958401959095209452929052825290205481565b3480156107f357600080fd5b506104966108023660046141f9565b61174e565b34801561081357600080fd5b506103fd6108223660046140ad565b6117ae565b34801561083357600080fd5b5061054760165481565b34801561084957600080fd5b5061054760175481565b34801561085f57600080fd5b5061054761086e366004614633565b61188a565b34801561087f57600080fd5b506103fd611910565b34801561089457600080fd5b506104496108a33660046141de565b611924565b3480156108b457600080fd5b506103fd6119be565b3480156108c957600080fd5b506105476108d8366004614650565b600260209081526000928352604080842090915290825290205481565b34801561090157600080fd5b506000546001600160a01b0316610496565b34801561091f57600080fd5b506103fd61092e366004614683565b6119da565b34801561093f57600080fd5b506103fd61094e3660046141f9565b611c23565b34801561095f57600080fd5b50600454610496906001600160a01b031681565b34801561097f57600080fd5b50610449611c30565b34801561099457600080fd5b50610449611c3f565b3480156109a957600080fd5b506103fd6109b836600461425e565b611c4c565b3480156109c957600080fd5b506104496109d83660046141de565b611d03565b3480156109e957600080fd5b506103fd6109f83660046146b7565b611e1a565b348015610a0957600080fd5b506103fd610a1836600461446c565b611e25565b6103fd610a2b36600461476c565b611eb8565b348015610a3c57600080fd5b50610a45600181565b60405161ffff909116815260200161042b565b348015610a6457600080fd5b506104967f000000000000000000000000000000000000000000000000000000000000000081565b348015610a9857600080fd5b506103fd610aa7366004614821565b611ec7565b348015610ab857600080fd5b506103fd610ac7366004614633565b611eff565b348015610ad857600080fd5b5061054761271081565b348015610aee57600080fd5b50610449610afd3660046141f9565b611f55565b348015610b0e57600080fd5b506103fd610b1d36600461488c565b611ffd565b348015610b2e57600080fd5b506103fd610b3d36600461425e565b612092565b6103fd610b503660046140ad565b612142565b348015610b6157600080fd5b50610618610b703660046148fa565b612358565b348015610b8157600080fd5b506103fd610b90366004614926565b61241d565b348015610ba157600080fd5b5061054760185481565b348015610bb757600080fd5b5061041f610bc6366004614962565b6001600160a01b03918216600090815260106020908152604080832093909416825291909152205460ff1690565b348015610c0057600080fd5b506103fd610c0f36600461446c565b6124cf565b348015610c2057600080fd5b50610618610c2f36600461499b565b612529565b348015610c4057600080fd5b506103fd610c4f366004614633565b6125f4565b348015610c6057600080fd5b50610449610c6f366004614a14565b61266a565b348015610c8057600080fd5b50610547610c8f3660046141de565b60096020526000908152604090205481565b348015610cad57600080fd5b5060195461041f9060ff1681565b337f00000000000000000000000000000000000000000000000000000000000000006001600160a01b031614610d385760405162461bcd60e51b815260206004820152601e60248201527f4c7a4170703a20696e76616c696420656e64706f696e742063616c6c6572000060448201526064015b60405180910390fd5b61ffff861660009081526001602052604081208054610d5690614a61565b80601f0160208091040260200160405190810160405280929190818152602001828054610d8290614a61565b8015610dcf5780601f10610da457610100808354040283529160200191610dcf565b820191906000526020600020905b815481529060010190602001808311610db257829003601f168201915b50505050509050805186869050148015610dea575060008151115b8015610e12575080516020820120604051610e089088908890614a9c565b6040518091039020145b610e6d5760405162461bcd60e51b815260206004820152602660248201527f4c7a4170703a20696e76616c696420736f757263652073656e64696e6720636f6044820152651b9d1c9858dd60d21b6064820152608401610d2f565b610ee38787878080601f01602080910402602001604051908101604052809392919081815260200183838082843760009201919091525050604080516020601f8a018190048102820181019092528881528a93509150889088908190840183828082843760009201919091525061271d92505050565b50505050505050565b60006001600160e01b031982161580610f095750610f0982612796565b92915050565b6060600b8054610f1e90614a61565b80601f0160208091040260200160405190810160405280929190818152602001828054610f4a90614a61565b8015610f975780601f10610f6c57610100808354040283529160200191610f97565b820191906000526020600020905b815481529060010190602001808311610f7a57829003601f168201915b5050505050905090565b610fa96127bb565b6040516307e0db1760e01b815261ffff821660048201527f00000000000000000000000000000000000000000000000000000000000000006001600160a01b0316906307e0db17906024015b600060405180830381600087803b15801561100f57600080fd5b505af1158015611023573d6000803e3d6000fd5b5050505050565b600061103582612815565b506000908152600f60205260409020546001600160a01b031690565b600061105c8261174e565b9050806001600160a01b0316836001600160a01b031614156110ca5760405162461bcd60e51b815260206004820152602160248201527f4552433732313a20617070726f76616c20746f2063757272656e74206f776e656044820152603960f91b6064820152608401610d2f565b336001600160a01b03821614806110e657506110e68133610bc6565b6111585760405162461bcd60e51b815260206004820152603d60248201527f4552433732313a20617070726f76652063616c6c6572206973206e6f7420746f60448201527f6b656e206f776e6572206f7220617070726f76656420666f7220616c6c0000006064820152608401610d2f565b6111628383612865565b505050565b61116f6127bb565b600081116111cb5760405162461bcd60e51b8152602060048201526024808201527f6d696e476173546f5472616e73666572416e6453746f7265206d7573742062656044820152630203e20360e41b6064820152608401610d2f565b60078190556040518181527ffebbc4f8bb9ec2313950c718d43123124b15778efda4c1f1d529de2995b4f34d906020015b60405180910390a150565b61120f6127bb565b61ffff909116600090815260036020526040902055565b61122e6127bb565b6040516310ddb13760e01b815261ffff821660048201527f00000000000000000000000000000000000000000000000000000000000000006001600160a01b0316906310ddb13790602401610ff5565b6016543410156112c85760405162461bcd60e51b8152602060048201526015602482015274139bdd08195b9bdd59da08195d1a195c881cd95b9d605a1b6044820152606401610d2f565b601854601754111561132a5760405162461bcd60e51b815260206004820152602560248201527f4c6179657253796e634f4e46543a206d6178206d696e74206c696d69742072656044820152641858da195960da1b6064820152608401610d2f565b60178054908190600061133c83614ac2565b919050555061134b33826128d3565b50565b611359335b826128ed565b6113755760405162461bcd60e51b8152600401610d2f90614add565b61116283838361296b565b600080611398878761139188612adc565b8787612529565b915091509550959350505050565b60006113b18361188a565b82106114135760405162461bcd60e51b815260206004820152602b60248201527f455243373231456e756d657261626c653a206f776e657220696e646578206f7560448201526a74206f6620626f756e647360a81b6064820152608401610d2f565b506001600160a01b03919091166000908152601160209081526040808320938352929052205490565b6114446127bb565b8051611457906015906020840190613f2a565b5050565b61ffff83166000908152600160205260408120805482919061147c90614a61565b80601f01602080910402602001604051908101604052809291908181526020018280546114a890614a61565b80156114f55780601f106114ca576101008083540402835291602001916114f5565b820191906000526020600020905b8154815290600101906020018083116114d857829003601f168201915b50505050509050838360405161150c929190614a9c565b60405180910390208180519060200120149150509392505050565b61116283838360405180602001604052806000815250611ec7565b61154a6127bb565b6040516342d65a8d60e01b81526001600160a01b037f000000000000000000000000000000000000000000000000000000000000000016906342d65a8d9061159a90869086908690600401614b53565b600060405180830381600087803b1580156115b457600080fd5b505af1158015610ee3573d6000803e3d6000fd5b6115d06127bb565b600047116116165760405162461bcd60e51b81526020600482015260136024820152724e6f206665657320746f20776974686472617760681b6044820152606401610d2f565b600080546040516001600160a01b03909116914780156108fc02929091818181858888f1935050505015801561134b573d6000803e3d6000fd5b600061165b60135490565b82106116be5760405162461bcd60e51b815260206004820152602c60248201527f455243373231456e756d657261626c653a20676c6f62616c20696e646578206f60448201526b7574206f6620626f756e647360a01b6064820152608401610d2f565b601382815481106116d1576116d1614b71565b90600052602060002001549050919050565b61ffff83166000908152600960205260409020546117079084906001908490612b27565b60408051336020820152600081830152815180820383018152606090910190915261116290849030858534612c06565b610ee387878761174688612adc565b878787612dac565b6000818152600d60205260408120546001600160a01b031680610f095760405162461bcd60e51b8152602060048201526018602482015277115490cdcc8c4e881a5b9d985b1a59081d1bdad95b88125160421b6044820152606401610d2f565b33301461180c5760405162461bcd60e51b815260206004820152602660248201527f4e6f6e626c6f636b696e674c7a4170703a2063616c6c6572206d7573742062656044820152650204c7a4170760d41b6064820152608401610d2f565b6118828686868080601f01602080910402602001604051908101604052809392919081815260200183838082843760009201919091525050604080516020601f890181900481028201810190925287815289935091508790879081908401838280828437600092019190915250612f8092505050565b505050505050565b60006001600160a01b0382166118f45760405162461bcd60e51b815260206004820152602960248201527f4552433732313a2061646472657373207a65726f206973206e6f7420612076616044820152683634b21037bbb732b960b91b6064820152608401610d2f565b506001600160a01b03166000908152600e602052604090205490565b6119186127bb565b61192260006130d7565b565b6001602052600090815260409020805461193d90614a61565b80601f016020809104026020016040519081016040528092919081815260200182805461196990614a61565b80156119b65780601f1061198b576101008083540402835291602001916119b6565b820191906000526020600020905b81548152906001019060200180831161199957829003601f168201915b505050505081565b6119c66127bb565b6019805460ff19811660ff90911615179055565b6119e2613127565b80516020808301919091206000818152600a90925260409091206002015460ff16611a435760405162461bcd60e51b81526020600482015260116024820152701b9bc818dc99591a5d1cc81cdd1bdc9959607a1b6044820152606401610d2f565b600082806020019051810190611a599190614bcc565b6000848152600a602052604081208054600190910154929450909250611a959161ffff8216916201000090046001600160a01b03169085613181565b6000848152600a60205260409020600101549091508111611b0a5760405162461bcd60e51b815260206004820152602960248201527f6e6f7420656e6f7567682067617320746f2070726f6365737320637265646974604482015268103a3930b739b332b960b91b6064820152608401610d2f565b8151811415611b82576000838152600a602052604080822080546001600160b01b031916815560018101929092556002909101805460ff19169055517fd7be02b8dd0d27bd0517a9cb4d7469ce27df4313821ae5ec1ff69acc594ba23390611b759085815260200190565b60405180910390a1611c16565b604080516080810182526000858152600a6020818152848320805461ffff80821687526001600160a01b03620100008084048216868a019081529989018b8152600160608b01818152998f90529790965297519851169096026001600160b01b03199091169690951695909517939093178455915191830191909155516002909101805491151560ff199092169190911790555b50505061134b6001600655565b611c2b6127bb565b601655565b6060600c8054610f1e90614a61565b6015805461193d90614a61565b611c546127bb565b60008111611caf5760405162461bcd60e51b815260206004820152602260248201527f647374436861696e4964546f42617463684c696d6974206d757374206265203e604482015261020360f41b6064820152608401610d2f565b61ffff8216600081815260086020908152604091829020849055815192835282018390527f7315f7654d594ead24a30160ed9ba2d23247f543016b918343591e93d7afdb6d91015b60405180910390a15050565b61ffff8116600090815260016020526040812080546060929190611d2690614a61565b80601f0160208091040260200160405190810160405280929190818152602001828054611d5290614a61565b8015611d9f5780601f10611d7457610100808354040283529160200191611d9f565b820191906000526020600020905b815481529060010190602001808311611d8257829003601f168201915b50505050509050805160001415611df85760405162461bcd60e51b815260206004820152601d60248201527f4c7a4170703a206e6f20747275737465642070617468207265636f72640000006044820152606401610d2f565b611e13600060148351611e0b9190614c86565b8391906131d3565b9392505050565b6114573383836132e0565b611e2d6127bb565b818130604051602001611e4293929190614c9d565b60408051601f1981840301815291815261ffff85166000908152600160209081529190208251611e7793919290910190613f2a565b507f8c0400cfe2d1199b1a725c78960bcc2a344d869b80590d0f2bd005db15a572ce838383604051611eab93929190614b53565b60405180910390a1505050565b610ee387878787878787612dac565b611ed133836128ed565b611eed5760405162461bcd60e51b8152600401610d2f90614add565b611ef9848484846133af565b50505050565b611f076127bb565b600480546001600160a01b0319166001600160a01b0383169081179091556040519081527f5db758e995a17ec1ad84bdef7e8c3293a0bd6179bcce400dff5d4c3d87db726b906020016111fc565b60606000611f62836133e2565b90506000815111610f095760158054611f7a90614a61565b80601f0160208091040260200160405190810160405280929190818152602001828054611fa690614a61565b8015611ff35780601f10611fc857610100808354040283529160200191611ff3565b820191906000526020600020905b815481529060010190602001808311611fd657829003601f168201915b5050505050611e13565b6120056127bb565b6040516332fb62e760e21b81526001600160a01b037f0000000000000000000000000000000000000000000000000000000000000000169063cbed8b9c906120599088908890889088908890600401614cc3565b600060405180830381600087803b15801561207357600080fd5b505af1158015612087573d6000803e3d6000fd5b505050505050505050565b61209a6127bb565b600081116120f65760405162461bcd60e51b815260206004820152602360248201527f647374436861696e4964546f5472616e73666572476173206d7573742062652060448201526203e20360ec1b6064820152608401610d2f565b61ffff8216600081815260096020908152604091829020849055815192835282018390527fc46df2983228ac2d9754e94a0d565e6671665dc8ad38602bc8e544f0685a29fb9101611cf7565b61ffff861660009081526005602052604080822090516121659088908890614a9c565b90815260408051602092819003830190206001600160401b038716600090815292529020549050806121e55760405162461bcd60e51b815260206004820152602360248201527f4e6f6e626c6f636b696e674c7a4170703a206e6f2073746f726564206d65737360448201526261676560e81b6064820152608401610d2f565b8083836040516121f6929190614a9c565b6040518091039020146122555760405162461bcd60e51b815260206004820152602160248201527f4e6f6e626c6f636b696e674c7a4170703a20696e76616c6964207061796c6f616044820152601960fa1b6064820152608401610d2f565b61ffff871660009081526005602052604080822090516122789089908990614a9c565b90815260408051602092819003830181206001600160401b038916600090815290845282902093909355601f88018290048202830182019052868252612310918991899089908190840183828082843760009201919091525050604080516020601f8a018190048102820181019092528881528a935091508890889081908401838280828437600092019190915250612f8092505050565b7fc264d91f3adc5588250e1551f547752ca0cfa8f6b530d243b9f9f4cab10ea8e58787878785604051612347959493929190614cfc565b60405180910390a150505050505050565b604080513360208201526000818301819052825180830384018152606083019384905263040a7bb160e41b9093529182917f00000000000000000000000000000000000000000000000000000000000000006001600160a01b0316906340a7bb10906123d0908990309086908b908b90606401614d37565b6040805180830381865afa1580156123ec573d6000803e3d6000fd5b505050506040513d601f19601f820116820180604052508101906124109190614d8b565b9250925050935093915050565b6124256127bb565b6000811161246d5760405162461bcd60e51b81526020600482015260156024820152744c7a4170703a20696e76616c6964206d696e47617360581b6044820152606401610d2f565b61ffff83811660008181526002602090815260408083209487168084529482529182902085905581519283528201929092529081018290527f9d5c7c0b934da8fefa9c7760c98383778a12dfbfc0c3b3106518f43fb9508ac090606001611eab565b6124d76127bb565b61ffff831660009081526001602052604090206124f5908383613fae565b507ffa41487ad5d6728f0b19276fa1eddc16558578f5109fc39d2dc33c3230470dab838383604051611eab93929190614b53565b60008060008686604051602001612541929190614dea565b60408051601f198184030181529082905263040a7bb160e41b825291506001600160a01b037f000000000000000000000000000000000000000000000000000000000000000016906340a7bb10906125a5908b90309086908b908b90600401614d37565b6040805180830381865afa1580156125c1573d6000803e3d6000fd5b505050506040513d601f19601f820116820180604052508101906125e59190614d8b565b92509250509550959350505050565b6125fc6127bb565b6001600160a01b0381166126615760405162461bcd60e51b815260206004820152602660248201527f4f776e61626c653a206e6577206f776e657220697320746865207a65726f206160448201526564647265737360d01b6064820152608401610d2f565b61134b816130d7565b604051633d7b2f6f60e21b815261ffff808616600483015284166024820152306044820152606481018290526060907f00000000000000000000000000000000000000000000000000000000000000006001600160a01b03169063f5ecbdbc90608401600060405180830381865afa1580156126ea573d6000803e3d6000fd5b505050506040513d6000823e601f3d908101601f191682016040526127129190810190614e18565b90505b949350505050565b6000806127805a60966366ad5c8a60e01b898989896040516024016127459493929190614e4c565b60408051601f198184030181529190526020810180516001600160e01b03166001600160e01b03199093169290921790915230929190613448565b91509150816118825761188286868686856134d2565b60006001600160e01b0319821663780e9d6360e01b1480610f095750610f098261356f565b6000546001600160a01b031633146119225760405162461bcd60e51b815260206004820181905260248201527f4f776e61626c653a2063616c6c6572206973206e6f7420746865206f776e65726044820152606401610d2f565b61281e816135af565b61134b5760405162461bcd60e51b8152602060048201526018602482015277115490cdcc8c4e881a5b9d985b1a59081d1bdad95b88125160421b6044820152606401610d2f565b6000818152600f6020526040902080546001600160a01b0319166001600160a01b038416908117909155819061289a8261174e565b6001600160a01b03167f8c5be1e5ebec7d5bd14f71427d1e84f3dd0314c0f7b2291e5b200ac8c7c3b92560405160405180910390a45050565b6114578282604051806020016040528060008152506135cc565b6000806128f98361174e565b9050806001600160a01b0316846001600160a01b0316148061294057506001600160a01b0380821660009081526010602090815260408083209388168352929052205460ff165b806127155750836001600160a01b03166129598461102a565b6001600160a01b031614949350505050565b826001600160a01b031661297e8261174e565b6001600160a01b0316146129a45760405162461bcd60e51b8152600401610d2f90614e8a565b6001600160a01b038216612a065760405162461bcd60e51b8152602060048201526024808201527f4552433732313a207472616e7366657220746f20746865207a65726f206164646044820152637265737360e01b6064820152608401610d2f565b612a1383838360016135ff565b826001600160a01b0316612a268261174e565b6001600160a01b031614612a4c5760405162461bcd60e51b8152600401610d2f90614e8a565b6000818152600f6020908152604080832080546001600160a01b03199081169091556001600160a01b03878116808652600e8552838620805460001901905590871680865283862080546001019055868652600d90945282852080549092168417909155905184937fddf252ad1be2c89b69c2b068fc378daa952ba7f163c4a11628f55a4df523b3ef91a4505050565b60408051600180825281830190925260609160009190602080830190803683370190505090508281600081518110612b1657612b16614b71565b602090810291909101015292915050565b6000612b328361360b565b61ffff808716600090815260026020908152604080832093891683529290529081205491925090612b64908490614ecf565b905060008111612bb65760405162461bcd60e51b815260206004820152601a60248201527f4c7a4170703a206d696e4761734c696d6974206e6f74207365740000000000006044820152606401610d2f565b808210156118825760405162461bcd60e51b815260206004820152601b60248201527f4c7a4170703a20676173206c696d697420697320746f6f206c6f7700000000006044820152606401610d2f565b61ffff861660009081526001602052604081208054612c2490614a61565b80601f0160208091040260200160405190810160405280929190818152602001828054612c5090614a61565b8015612c9d5780601f10612c7257610100808354040283529160200191612c9d565b820191906000526020600020905b815481529060010190602001808311612c8057829003601f168201915b50505050509050805160001415612d0f5760405162461bcd60e51b815260206004820152603060248201527f4c7a4170703a2064657374696e6174696f6e20636861696e206973206e6f742060448201526f61207472757374656420736f7572636560801b6064820152608401610d2f565b612d1a878751613667565b60405162c5803160e81b81526001600160a01b037f0000000000000000000000000000000000000000000000000000000000000000169063c5803100908490612d71908b9086908c908c908c908c90600401614ee7565b6000604051808303818588803b158015612d8a57600080fd5b505af1158015612d9e573d6000803e3d6000fd5b505050505050505050505050565b6000845111612df35760405162461bcd60e51b8152602060048201526013602482015272746f6b656e4964735b5d20697320656d70747960681b6044820152606401610d2f565b835160011480612e17575061ffff8616600090815260086020526040902054845111155b612e6e5760405162461bcd60e51b815260206004820152602260248201527f62617463682073697a65206578636565647320647374206261746368206c696d6044820152611a5d60f21b6064820152608401610d2f565b60005b8451811015612eb157612e9f888888888581518110612e9257612e92614b71565b60200260200101516136d5565b80612ea981614ac2565b915050612e71565b5060008585604051602001612ec7929190614dea565b6040516020818303038152906040529050612f0c876001848851600960008d61ffff1661ffff16815260200190815260200160002054612f079190614f4e565b612b27565b612f1a878286868634612c06565b85604051612f289190614f6d565b6040518091039020886001600160a01b03168861ffff167fe1b87c47fdeb4f9cbadbca9df3af7aba453bb6e501075d0440d88125b711522a88604051612f6e9190614f89565b60405180910390a45050505050505050565b60008082806020019051810190612f979190614bcc565b601482015191935091506000612faf88838386613181565b905082518110156130835784516020808701919091206040805160808101825261ffff808d1682526001600160a01b038088168387019081528385018881526001606086018181526000898152600a909a529887902095518654935190941662010000026001600160b01b03199093169390941692909217178355519082015592516002909301805493151560ff199094169390931790925590517f10e0b70d256bccc84b7027506978bd8b68984a870788b93b479def144c839ad7906130799083908990614f9c565b60405180910390a1505b816001600160a01b03168760405161309b9190614f6d565b60405180910390208961ffff167f5b821db8a46f8ecbe1941ba2f51cfeea9643268b56631f70d45e2a745d99026586604051612f6e9190614f89565b600080546001600160a01b038381166001600160a01b0319831681178455604051919092169283917f8be0079c531659141344cd1fd0a4f28419497f9722a3daafe3b4186f6b6457e09190a35050565b6002600654141561317a5760405162461bcd60e51b815260206004820152601f60248201527f5265656e7472616e637947756172643a207265656e7472616e742063616c6c006044820152606401610d2f565b6002600655565b6000825b8251811015612712576007545a101561319d57612712565b6131c186868584815181106131b4576131b4614b71565b60200260200101516137c0565b806131cb81614ac2565b915050613185565b6060816131e181601f614ecf565b10156132205760405162461bcd60e51b815260206004820152600e60248201526d736c6963655f6f766572666c6f7760901b6044820152606401610d2f565b61322a8284614ecf565b8451101561326e5760405162461bcd60e51b8152602060048201526011602482015270736c6963655f6f75744f66426f756e647360781b6044820152606401610d2f565b60608215801561328d57604051915060008252602082016040526132d7565b6040519150601f8416801560200281840101858101878315602002848b0101015b818310156132c65780518352602092830192016132ae565b5050858452601f01601f1916604052505b50949350505050565b816001600160a01b0316836001600160a01b031614156133425760405162461bcd60e51b815260206004820152601960248201527f4552433732313a20617070726f766520746f2063616c6c6572000000000000006044820152606401610d2f565b6001600160a01b03838116600081815260106020908152604080832094871680845294825291829020805460ff191686151590811790915591519182527f17307eab39ab6107e8899845ad3d59bd9653f200f220920489ca2b5937696c31910160405180910390a3505050565b6133ba84848461296b565b6133c684848484613820565b611ef95760405162461bcd60e51b8152600401610d2f90614fb5565b60606133ed82612815565b60006133f761391b565b905060008151116134175760405180602001604052806000815250611e13565b8061342184613949565b604051602001613432929190615007565b6040516020818303038152906040529392505050565b6000606060008060008661ffff166001600160401b0381111561346d5761346d6142bb565b6040519080825280601f01601f191660200182016040528015613497576020820181803683370190505b50905060008087516020890160008d8df191503d9250868311156134b9578692505b828152826000602083013e909890975095505050505050565b8180519060200120600560008761ffff1661ffff168152602001908152602001600020856040516135039190614f6d565b9081526040805191829003602090810183206001600160401b0388166000908152915220919091557fe183f33de2837795525b4792ca4cd60535bd77c53b7e7030060bfcf5734d6b0c906135609087908790879087908790615036565b60405180910390a15050505050565b60006001600160e01b031982166380ac58cd60e01b14806135a057506001600160e01b03198216635b5e139f60e01b145b80610f095750610f09826139e5565b6000908152600d60205260409020546001600160a01b0316151590565b6135d68383613a1a565b6135e36000848484613820565b6111625760405162461bcd60e51b8152600401610d2f90614fb5565b611ef984848484613b95565b600060228251101561365f5760405162461bcd60e51b815260206004820152601c60248201527f4c7a4170703a20696e76616c69642061646170746572506172616d73000000006044820152606401610d2f565b506022015190565b61ffff82166000908152600360205260409020548061368557506127105b808211156111625760405162461bcd60e51b815260206004820181905260248201527f4c7a4170703a207061796c6f61642073697a6520697320746f6f206c617267656044820152606401610d2f565b6136de33611353565b6137415760405162461bcd60e51b815260206004820152602e60248201527f4f4e46543732313a2073656e642063616c6c6572206973206e6f74206f776e6560448201526d1c881b9bdc88185c1c1c9bdd995960921b6064820152608401610d2f565b836001600160a01b03166137548261174e565b6001600160a01b0316146137b55760405162461bcd60e51b815260206004820152602260248201527f4f4e46543732313a2073656e642066726f6d20696e636f7272656374206f776e60448201526132b960f11b6064820152608401610d2f565b611ef984308361296b565b6137c9816135af565b15806137f557506137d9816135af565b80156137f55750306137ea8261174e565b6001600160a01b0316145b6137fe57600080fd5b613807816135af565b6138155761116282826128d3565b61116230838361296b565b60006001600160a01b0384163b1561391357604051630a85bd0160e11b81526001600160a01b0385169063150b7a0290613864903390899088908890600401615088565b6020604051808303816000875af192505050801561389f575060408051601f3d908101601f1916820190925261389c918101906150c5565b60015b6138f9573d8080156138cd576040519150601f19603f3d011682016040523d82523d6000602084013e6138d2565b606091505b5080516138f15760405162461bcd60e51b8152600401610d2f90614fb5565b805181602001fd5b6001600160e01b031916630a85bd0160e11b149050612715565b506001612715565b60195460609060ff16156139365760158054610f1e90614a61565b5060408051602081019091526000815290565b6060600061395683613cc2565b60010190506000816001600160401b03811115613975576139756142bb565b6040519080825280601f01601f19166020018201604052801561399f576020820181803683370190505b5090508181016020015b600019016f181899199a1a9b1b9c1cb0b131b232b360811b600a86061a8153600a85049450846139d8576139dd565b6139a9565b509392505050565b60006001600160e01b031982166322bac5d960e01b1480610f0957506301ffc9a760e01b6001600160e01b0319831614610f09565b6001600160a01b038216613a705760405162461bcd60e51b815260206004820181905260248201527f4552433732313a206d696e7420746f20746865207a65726f20616464726573736044820152606401610d2f565b613a79816135af565b15613ac65760405162461bcd60e51b815260206004820152601c60248201527f4552433732313a20746f6b656e20616c7265616479206d696e746564000000006044820152606401610d2f565b613ad46000838360016135ff565b613add816135af565b15613b2a5760405162461bcd60e51b815260206004820152601c60248201527f4552433732313a20746f6b656e20616c7265616479206d696e746564000000006044820152606401610d2f565b6001600160a01b0382166000818152600e6020908152604080832080546001019055848352600d90915280822080546001600160a01b0319168417905551839291907fddf252ad1be2c89b69c2b068fc378daa952ba7f163c4a11628f55a4df523b3ef908290a45050565b6001811115613c045760405162461bcd60e51b815260206004820152603560248201527f455243373231456e756d657261626c653a20636f6e7365637574697665207472604482015274185b9cd9995c9cc81b9bdd081cdd5c1c1bdc9d1959605a1b6064820152608401610d2f565b816001600160a01b038516613c6057613c5b81601380546000838152601460205260408120829055600182018355919091527f66de8ffda797e3de9c05e8fc57b3bf0ec28a930d40b0d285d93c06501cf6a0900155565b613c83565b836001600160a01b0316856001600160a01b031614613c8357613c838582613d9a565b6001600160a01b038416613c9f57613c9a81613e37565b611023565b846001600160a01b0316846001600160a01b031614611023576110238482613ee6565b60008072184f03e93ff9f4daa797ed6e38ed64bf6a1f0160401b8310613d015772184f03e93ff9f4daa797ed6e38ed64bf6a1f0160401b830492506040015b6d04ee2d6d415b85acef81000000008310613d2d576d04ee2d6d415b85acef8100000000830492506020015b662386f26fc100008310613d4b57662386f26fc10000830492506010015b6305f5e1008310613d63576305f5e100830492506008015b6127108310613d7757612710830492506004015b60648310613d89576064830492506002015b600a8310610f095760010192915050565b60006001613da78461188a565b613db19190614c86565b600083815260126020526040902054909150808214613e04576001600160a01b03841660009081526011602090815260408083208584528252808320548484528184208190558352601290915290208190555b5060009182526012602090815260408084208490556001600160a01b039094168352601181528383209183525290812055565b601354600090613e4990600190614c86565b60008381526014602052604081205460138054939450909284908110613e7157613e71614b71565b906000526020600020015490508060138381548110613e9257613e92614b71565b6000918252602080832090910192909255828152601490915260408082208490558582528120556013805480613eca57613eca6150e2565b6001900381819060005260206000200160009055905550505050565b6000613ef18361188a565b6001600160a01b039093166000908152601160209081526040808320868452825280832085905593825260129052919091209190915550565b828054613f3690614a61565b90600052602060002090601f016020900481019282613f585760008555613f9e565b82601f10613f7157805160ff1916838001178555613f9e565b82800160010185558215613f9e579182015b82811115613f9e578251825591602001919060010190613f83565b50613faa929150614022565b5090565b828054613fba90614a61565b90600052602060002090601f016020900481019282613fdc5760008555613f9e565b82601f10613ff55782800160ff19823516178555613f9e565b82800160010185558215613f9e579182015b82811115613f9e578235825591602001919060010190614007565b5b80821115613faa5760008155600101614023565b803561ffff8116811461404957600080fd5b919050565b60008083601f84011261406057600080fd5b5081356001600160401b0381111561407757600080fd5b60208301915083602082850101111561408f57600080fd5b9250929050565b80356001600160401b038116811461404957600080fd5b600080600080600080608087890312156140c657600080fd5b6140cf87614037565b955060208701356001600160401b03808211156140eb57600080fd5b6140f78a838b0161404e565b909750955085915061410b60408a01614096565b9450606089013591508082111561412157600080fd5b5061412e89828a0161404e565b979a9699509497509295939492505050565b6001600160e01b03198116811461134b57600080fd5b60006020828403121561416857600080fd5b8135611e1381614140565b60005b8381101561418e578181015183820152602001614176565b83811115611ef95750506000910152565b600081518084526141b7816020860160208601614173565b601f01601f19169290920160200192915050565b602081526000611e13602083018461419f565b6000602082840312156141f057600080fd5b611e1382614037565b60006020828403121561420b57600080fd5b5035919050565b6001600160a01b038116811461134b57600080fd5b803561404981614212565b6000806040838503121561424557600080fd5b823561425081614212565b946020939093013593505050565b6000806040838503121561427157600080fd5b61425083614037565b60008060006060848603121561428f57600080fd5b833561429a81614212565b925060208401356142aa81614212565b929592945050506040919091013590565b634e487b7160e01b600052604160045260246000fd5b604051601f8201601f191681016001600160401b03811182821017156142f9576142f96142bb565b604052919050565b60006001600160401b0382111561431a5761431a6142bb565b50601f01601f191660200190565b600061433b61433684614301565b6142d1565b905082815283838301111561434f57600080fd5b828260208301376000602084830101529392505050565b600082601f83011261437757600080fd5b611e1383833560208501614328565b8035801515811461404957600080fd5b600080600080600060a086880312156143ae57600080fd5b6143b786614037565b945060208601356001600160401b03808211156143d357600080fd5b6143df89838a01614366565b9550604088013594506143f460608901614386565b9350608088013591508082111561440a57600080fd5b5061441788828901614366565b9150509295509295909350565b60006020828403121561443657600080fd5b81356001600160401b0381111561444c57600080fd5b8201601f8101841361445d57600080fd5b61271584823560208401614328565b60008060006040848603121561448157600080fd5b61448a84614037565b925060208401356001600160401b038111156144a557600080fd5b6144b18682870161404e565b9497909650939450505050565b6000806000606084860312156144d357600080fd5b6144dc84614037565b925060208401356144ec81614212565b915060408401356001600160401b0381111561450757600080fd5b61451386828701614366565b9150509250925092565b600080600080600080600060e0888a03121561453857600080fd5b873561454381614212565b965061455160208901614037565b955060408801356001600160401b038082111561456d57600080fd5b6145798b838c01614366565b965060608a0135955060808a0135915061459282614212565b90935060a0890135906145a482614212565b90925060c089013590808211156145ba57600080fd5b506145c78a828b01614366565b91505092959891949750929550565b6000806000606084860312156145eb57600080fd5b6145f484614037565b925060208401356001600160401b0381111561460f57600080fd5b61461b86828701614366565b92505061462a60408501614096565b90509250925092565b60006020828403121561464557600080fd5b8135611e1381614212565b6000806040838503121561466357600080fd5b61466c83614037565b915061467a60208401614037565b90509250929050565b60006020828403121561469557600080fd5b81356001600160401b038111156146ab57600080fd5b61271584828501614366565b600080604083850312156146ca57600080fd5b82356146d581614212565b915061467a60208401614386565b60006001600160401b038211156146fc576146fc6142bb565b5060051b60200190565b600082601f83011261471757600080fd5b81356020614727614336836146e3565b82815260059290921b8401810191818101908684111561474657600080fd5b8286015b84811015614761578035835291830191830161474a565b509695505050505050565b600080600080600080600060e0888a03121561478757600080fd5b873561479281614212565b96506147a060208901614037565b955060408801356001600160401b03808211156147bc57600080fd5b6147c88b838c01614366565b965060608a01359150808211156147de57600080fd5b6147ea8b838c01614706565b955060808a013591506147fc82614212565b81945061480b60a08b01614227565b935060c08a01359150808211156145ba57600080fd5b6000806000806080858703121561483757600080fd5b843561484281614212565b9350602085013561485281614212565b92506040850135915060608501356001600160401b0381111561487457600080fd5b61488087828801614366565b91505092959194509250565b6000806000806000608086880312156148a457600080fd5b6148ad86614037565b94506148bb60208701614037565b93506040860135925060608601356001600160401b038111156148dd57600080fd5b6148e98882890161404e565b969995985093965092949392505050565b60008060006060848603121561490f57600080fd5b61491884614037565b92506144ec60208501614386565b60008060006060848603121561493b57600080fd5b61494484614037565b925061495260208501614037565b9150604084013590509250925092565b6000806040838503121561497557600080fd5b823561498081614212565b9150602083013561499081614212565b809150509250929050565b600080600080600060a086880312156149b357600080fd5b6149bc86614037565b945060208601356001600160401b03808211156149d857600080fd5b6149e489838a01614366565b955060408801359150808211156149fa57600080fd5b614a0689838a01614706565b94506143f460608901614386565b60008060008060808587031215614a2a57600080fd5b614a3385614037565b9350614a4160208601614037565b92506040850135614a5181614212565b9396929550929360600135925050565b600181811c90821680614a7557607f821691505b60208210811415614a9657634e487b7160e01b600052602260045260246000fd5b50919050565b8183823760009101908152919050565b634e487b7160e01b600052601160045260246000fd5b6000600019821415614ad657614ad6614aac565b5060010190565b6020808252602d908201527f4552433732313a2063616c6c6572206973206e6f7420746f6b656e206f776e6560408201526c1c881bdc88185c1c1c9bdd9959609a1b606082015260800190565b81835281816020850137506000828201602090810191909152601f909101601f19169091010190565b61ffff84168152604060208201526000612712604083018486614b2a565b634e487b7160e01b600052603260045260246000fd5b600082601f830112614b9857600080fd5b8151614ba661433682614301565b818152846020838601011115614bbb57600080fd5b612715826020830160208701614173565b60008060408385031215614bdf57600080fd5b82516001600160401b0380821115614bf657600080fd5b614c0286838701614b87565b9350602091508185015181811115614c1957600080fd5b85019050601f81018613614c2c57600080fd5b8051614c3a614336826146e3565b81815260059190911b82018301908381019088831115614c5957600080fd5b928401925b82841015614c7757835182529284019290840190614c5e565b80955050505050509250929050565b600082821015614c9857614c98614aac565b500390565b8284823760609190911b6bffffffffffffffffffffffff19169101908152601401919050565b600061ffff808816835280871660208401525084604083015260806060830152614cf1608083018486614b2a565b979650505050505050565b61ffff86168152608060208201526000614d1a608083018688614b2a565b6001600160401b0394909416604083015250606001529392505050565b61ffff861681526001600160a01b038516602082015260a060408201819052600090614d659083018661419f565b84151560608401528281036080840152614d7f818561419f565b98975050505050505050565b60008060408385031215614d9e57600080fd5b505080516020909101519092909150565b600081518084526020808501945080840160005b83811015614ddf57815187529582019590820190600101614dc3565b509495945050505050565b604081526000614dfd604083018561419f565b8281036020840152614e0f8185614daf565b95945050505050565b600060208284031215614e2a57600080fd5b81516001600160401b03811115614e4057600080fd5b61271584828501614b87565b61ffff85168152608060208201526000614e69608083018661419f565b6001600160401b03851660408401528281036060840152614cf1818561419f565b60208082526025908201527f4552433732313a207472616e736665722066726f6d20696e636f72726563742060408201526437bbb732b960d91b606082015260800190565b60008219821115614ee257614ee2614aac565b500190565b61ffff8716815260c060208201526000614f0460c083018861419f565b8281036040840152614f16818861419f565b6001600160a01b0387811660608601528616608085015283810360a08501529050614f41818561419f565b9998505050505050505050565b6000816000190483118215151615614f6857614f68614aac565b500290565b60008251614f7f818460208701614173565b9190910192915050565b602081526000611e136020830184614daf565b828152604060208201526000612715604083018461419f565b60208082526032908201527f4552433732313a207472616e7366657220746f206e6f6e20455243373231526560408201527131b2b4bb32b91034b6b83632b6b2b73a32b960711b606082015260800190565b60008351615019818460208801614173565b83519083019061502d818360208801614173565b01949350505050565b61ffff8616815260a06020820152600061505360a083018761419f565b6001600160401b03861660408401528281036060840152615074818661419f565b90508281036080840152614d7f818561419f565b6001600160a01b03858116825284166020820152604081018390526080606082018190526000906150bb9083018461419f565b9695505050505050565b6000602082840312156150d757600080fd5b8151611e1381614140565b634e487b7160e01b600052603160045260246000fdfea2646970667358221220b8562e1c721562fc09b185fbacc177aa8f92bebece4f37cf1eec98d20faf9c6d64736f6c634300080c0033",
  "devdoc": {
    "kind": "dev",
    "methods": {
      "approve(address,uint256)": {
        "details": "See {IERC721-approve}."
      },
      "balanceOf(address)": {
        "details": "See {IERC721-balanceOf}."
      },
      "constructor": {
        "params": {
          "_endMintId": "the max number of mints on this chain",
          "_layerZeroEndpoint": "handles message transmission across chains",
          "_name": "the name of the token",
          "_startMintId": "the starting mint number on this chain",
          "_symbol": "the token symbol"
        }
      },
      "estimateSendBatchFee(uint16,bytes,uint256[],bool,bytes)": {
        "details": "estimate send token `_tokenId` to (`_dstChainId`, `_toAddress`) _dstChainId - L0 defined chain id to send tokens too _toAddress - dynamic bytes array which contains the address to whom you are sending tokens to on the dstChain _tokenIds[] - token Ids to transfer _useZro - indicates to use zro to pay L0 fees _adapterParams - flexible bytes array to indicate messaging adapter services in L0"
      },
      "estimateSendFee(uint16,bytes,uint256,bool,bytes)": {
        "details": "estimate send token `_tokenId` to (`_dstChainId`, `_toAddress`) _dstChainId - L0 defined chain id to send tokens too _toAddress - dynamic bytes array which contains the address to whom you are sending tokens to on the dstChain _tokenId - token Id to transfer _useZro - indicates to use zro to pay L0 fees _adapterParams - flexible bytes array to indicate messaging adapter services in L0"
      },
      "getApproved(uint256)": {
        "details": "See {IERC721-getApproved}."
      },
      "isApprovedForAll(address,address)": {
        "details": "See {IERC721-isApprovedForAll}."
      },
      "name()": {
        "details": "See {IERC721Metadata-name}."
      },
      "owner()": {
        "details": "Returns the address of the current owner."
      },
      "ownerOf(uint256)": {
        "details": "See {IERC721-ownerOf}."
      },
      "renounceOwnership()": {
        "details": "Leaves the contract without owner. It will not be possible to call `onlyOwner` functions. Can only be called by the current owner. NOTE: Renouncing ownership will leave the contract without an owner, thereby disabling any functionality that is only available to the owner."
      },
      "safeTransferFrom(address,address,uint256)": {
        "details": "See {IERC721-safeTransferFrom}."
      },
      "safeTransferFrom(address,address,uint256,bytes)": {
        "details": "See {IERC721-safeTransferFrom}."
      },
      "sendBatchFrom(address,uint16,bytes,uint256[],address,address,bytes)": {
        "details": "send tokens `_tokenIds[]` to (`_dstChainId`, `_toAddress`) from `_from` `_toAddress` can be any size depending on the `dstChainId`. `_zroPaymentAddress` set to address(0x0) if not paying in ZRO (LayerZero Token) `_adapterParams` is a flexible bytes array to indicate messaging adapter services"
      },
      "sendFrom(address,uint16,bytes,uint256,address,address,bytes)": {
        "details": "send token `_tokenId` to (`_dstChainId`, `_toAddress`) from `_from` `_toAddress` can be any size depending on the `dstChainId`. `_zroPaymentAddress` set to address(0x0) if not paying in ZRO (LayerZero Token) `_adapterParams` is a flexible bytes array to indicate messaging adapter services"
      },
      "setApprovalForAll(address,bool)": {
        "details": "See {IERC721-setApprovalForAll}."
      },
      "symbol()": {
        "details": "See {IERC721Metadata-symbol}."
      },
      "tokenByIndex(uint256)": {
        "details": "See {IERC721Enumerable-tokenByIndex}."
      },
      "tokenOfOwnerByIndex(address,uint256)": {
        "details": "See {IERC721Enumerable-tokenOfOwnerByIndex}."
      },
      "tokenURI(uint256)": {
        "details": "See {IERC721Metadata-tokenURI}."
      },
      "totalSupply()": {
        "details": "See {IERC721Enumerable-totalSupply}."
      },
      "transferFrom(address,address,uint256)": {
        "details": "See {IERC721-transferFrom}."
      },
      "transferOwnership(address)": {
        "details": "Transfers ownership of the contract to a new account (`newOwner`). Can only be called by the current owner."
      }
    },
    "title": "Interface of the UniversalONFT standard",
    "version": 1
  },
  "userdoc": {
    "kind": "user",
    "methods": {
      "constructor": {
        "notice": "Constructor for the UniversalONFT"
      }
    },
    "version": 1
  },
  "storageLayout": {
    "storage": [
      {
        "astId": 4106,
        "contract": "contracts/examples/LayerSync.sol:LayerSyncONFT",
        "label": "_owner",
        "offset": 0,
        "slot": "0",
        "type": "t_address"
      },
      {
        "astId": 16644,
        "contract": "contracts/examples/LayerSync.sol:LayerSyncONFT",
        "label": "trustedRemoteLookup",
        "offset": 0,
        "slot": "1",
        "type": "t_mapping(t_uint16,t_bytes_storage)"
      },
      {
        "astId": 16650,
        "contract": "contracts/examples/LayerSync.sol:LayerSyncONFT",
        "label": "minDstGasLookup",
        "offset": 0,
        "slot": "2",
        "type": "t_mapping(t_uint16,t_mapping(t_uint16,t_uint256))"
      },
      {
        "astId": 16654,
        "contract": "contracts/examples/LayerSync.sol:LayerSyncONFT",
        "label": "payloadSizeLimitLookup",
        "offset": 0,
        "slot": "3",
        "type": "t_mapping(t_uint16,t_uint256)"
      },
      {
        "astId": 16656,
        "contract": "contracts/examples/LayerSync.sol:LayerSyncONFT",
        "label": "precrime",
        "offset": 0,
        "slot": "4",
        "type": "t_address"
      },
      {
        "astId": 17193,
        "contract": "contracts/examples/LayerSync.sol:LayerSyncONFT",
        "label": "failedMessages",
        "offset": 0,
        "slot": "5",
        "type": "t_mapping(t_uint16,t_mapping(t_bytes_memory_ptr,t_mapping(t_uint64,t_bytes32)))"
      },
      {
        "astId": 4330,
        "contract": "contracts/examples/LayerSync.sol:LayerSyncONFT",
        "label": "_status",
        "offset": 0,
        "slot": "6",
        "type": "t_uint256"
      },
      {
        "astId": 27461,
        "contract": "contracts/examples/LayerSync.sol:LayerSyncONFT",
        "label": "minGasToTransferAndStore",
        "offset": 0,
        "slot": "7",
        "type": "t_uint256"
      },
      {
        "astId": 27465,
        "contract": "contracts/examples/LayerSync.sol:LayerSyncONFT",
        "label": "dstChainIdToBatchLimit",
        "offset": 0,
        "slot": "8",
        "type": "t_mapping(t_uint16,t_uint256)"
      },
      {
        "astId": 27469,
        "contract": "contracts/examples/LayerSync.sol:LayerSyncONFT",
        "label": "dstChainIdToTransferGas",
        "offset": 0,
        "slot": "9",
        "type": "t_mapping(t_uint16,t_uint256)"
      },
      {
        "astId": 27474,
        "contract": "contracts/examples/LayerSync.sol:LayerSyncONFT",
        "label": "storedCredits",
        "offset": 0,
        "slot": "10",
        "type": "t_mapping(t_bytes32,t_struct(StoredCredit)27459_storage)"
      },
      {
        "astId": 6978,
        "contract": "contracts/examples/LayerSync.sol:LayerSyncONFT",
        "label": "_name",
        "offset": 0,
        "slot": "11",
        "type": "t_string_storage"
      },
      {
        "astId": 6980,
        "contract": "contracts/examples/LayerSync.sol:LayerSyncONFT",
        "label": "_symbol",
        "offset": 0,
        "slot": "12",
        "type": "t_string_storage"
      },
      {
        "astId": 6984,
        "contract": "contracts/examples/LayerSync.sol:LayerSyncONFT",
        "label": "_owners",
        "offset": 0,
        "slot": "13",
        "type": "t_mapping(t_uint256,t_address)"
      },
      {
        "astId": 6988,
        "contract": "contracts/examples/LayerSync.sol:LayerSyncONFT",
        "label": "_balances",
        "offset": 0,
        "slot": "14",
        "type": "t_mapping(t_address,t_uint256)"
      },
      {
        "astId": 6992,
        "contract": "contracts/examples/LayerSync.sol:LayerSyncONFT",
        "label": "_tokenApprovals",
        "offset": 0,
        "slot": "15",
        "type": "t_mapping(t_uint256,t_address)"
      },
      {
        "astId": 6998,
        "contract": "contracts/examples/LayerSync.sol:LayerSyncONFT",
        "label": "_operatorApprovals",
        "offset": 0,
        "slot": "16",
        "type": "t_mapping(t_address,t_mapping(t_address,t_bool))"
      },
      {
        "astId": 8028,
        "contract": "contracts/examples/LayerSync.sol:LayerSyncONFT",
        "label": "_ownedTokens",
        "offset": 0,
        "slot": "17",
        "type": "t_mapping(t_address,t_mapping(t_uint256,t_uint256))"
      },
      {
        "astId": 8032,
        "contract": "contracts/examples/LayerSync.sol:LayerSyncONFT",
        "label": "_ownedTokensIndex",
        "offset": 0,
        "slot": "18",
        "type": "t_mapping(t_uint256,t_uint256)"
      },
      {
        "astId": 8035,
        "contract": "contracts/examples/LayerSync.sol:LayerSyncONFT",
        "label": "_allTokens",
        "offset": 0,
        "slot": "19",
        "type": "t_array(t_uint256)dyn_storage"
      },
      {
        "astId": 8039,
        "contract": "contracts/examples/LayerSync.sol:LayerSyncONFT",
        "label": "_allTokensIndex",
        "offset": 0,
        "slot": "20",
        "type": "t_mapping(t_uint256,t_uint256)"
      },
      {
        "astId": 15408,
        "contract": "contracts/examples/LayerSync.sol:LayerSyncONFT",
        "label": "magicURI",
        "offset": 0,
        "slot": "21",
        "type": "t_string_storage"
      },
      {
        "astId": 15410,
        "contract": "contracts/examples/LayerSync.sol:LayerSyncONFT",
        "label": "mintPrice",
        "offset": 0,
        "slot": "22",
        "type": "t_uint256"
      },
      {
        "astId": 15412,
        "contract": "contracts/examples/LayerSync.sol:LayerSyncONFT",
        "label": "nextMintId",
        "offset": 0,
        "slot": "23",
        "type": "t_uint256"
      },
      {
        "astId": 15414,
        "contract": "contracts/examples/LayerSync.sol:LayerSyncONFT",
        "label": "maxMintId",
        "offset": 0,
        "slot": "24",
        "type": "t_uint256"
      },
      {
        "astId": 15416,
        "contract": "contracts/examples/LayerSync.sol:LayerSyncONFT",
        "label": "isReveal",
        "offset": 0,
        "slot": "25",
        "type": "t_bool"
      }
    ],
    "types": {
      "t_address": {
        "encoding": "inplace",
        "label": "address",
        "numberOfBytes": "20"
      },
      "t_array(t_uint256)dyn_storage": {
        "base": "t_uint256",
        "encoding": "dynamic_array",
        "label": "uint256[]",
        "numberOfBytes": "32"
      },
      "t_bool": {
        "encoding": "inplace",
        "label": "bool",
        "numberOfBytes": "1"
      },
      "t_bytes32": {
        "encoding": "inplace",
        "label": "bytes32",
        "numberOfBytes": "32"
      },
      "t_bytes_memory_ptr": {
        "encoding": "bytes",
        "label": "bytes",
        "numberOfBytes": "32"
      },
      "t_bytes_storage": {
        "encoding": "bytes",
        "label": "bytes",
        "numberOfBytes": "32"
      },
      "t_mapping(t_address,t_bool)": {
        "encoding": "mapping",
        "key": "t_address",
        "label": "mapping(address => bool)",
        "numberOfBytes": "32",
        "value": "t_bool"
      },
      "t_mapping(t_address,t_mapping(t_address,t_bool))": {
        "encoding": "mapping",
        "key": "t_address",
        "label": "mapping(address => mapping(address => bool))",
        "numberOfBytes": "32",
        "value": "t_mapping(t_address,t_bool)"
      },
      "t_mapping(t_address,t_mapping(t_uint256,t_uint256))": {
        "encoding": "mapping",
        "key": "t_address",
        "label": "mapping(address => mapping(uint256 => uint256))",
        "numberOfBytes": "32",
        "value": "t_mapping(t_uint256,t_uint256)"
      },
      "t_mapping(t_address,t_uint256)": {
        "encoding": "mapping",
        "key": "t_address",
        "label": "mapping(address => uint256)",
        "numberOfBytes": "32",
        "value": "t_uint256"
      },
      "t_mapping(t_bytes32,t_struct(StoredCredit)27459_storage)": {
        "encoding": "mapping",
        "key": "t_bytes32",
        "label": "mapping(bytes32 => struct ONFT721Core.StoredCredit)",
        "numberOfBytes": "32",
        "value": "t_struct(StoredCredit)27459_storage"
      },
      "t_mapping(t_bytes_memory_ptr,t_mapping(t_uint64,t_bytes32))": {
        "encoding": "mapping",
        "key": "t_bytes_memory_ptr",
        "label": "mapping(bytes => mapping(uint64 => bytes32))",
        "numberOfBytes": "32",
        "value": "t_mapping(t_uint64,t_bytes32)"
      },
      "t_mapping(t_uint16,t_bytes_storage)": {
        "encoding": "mapping",
        "key": "t_uint16",
        "label": "mapping(uint16 => bytes)",
        "numberOfBytes": "32",
        "value": "t_bytes_storage"
      },
      "t_mapping(t_uint16,t_mapping(t_bytes_memory_ptr,t_mapping(t_uint64,t_bytes32)))": {
        "encoding": "mapping",
        "key": "t_uint16",
        "label": "mapping(uint16 => mapping(bytes => mapping(uint64 => bytes32)))",
        "numberOfBytes": "32",
        "value": "t_mapping(t_bytes_memory_ptr,t_mapping(t_uint64,t_bytes32))"
      },
      "t_mapping(t_uint16,t_mapping(t_uint16,t_uint256))": {
        "encoding": "mapping",
        "key": "t_uint16",
        "label": "mapping(uint16 => mapping(uint16 => uint256))",
        "numberOfBytes": "32",
        "value": "t_mapping(t_uint16,t_uint256)"
      },
      "t_mapping(t_uint16,t_uint256)": {
        "encoding": "mapping",
        "key": "t_uint16",
        "label": "mapping(uint16 => uint256)",
        "numberOfBytes": "32",
        "value": "t_uint256"
      },
      "t_mapping(t_uint256,t_address)": {
        "encoding": "mapping",
        "key": "t_uint256",
        "label": "mapping(uint256 => address)",
        "numberOfBytes": "32",
        "value": "t_address"
      },
      "t_mapping(t_uint256,t_uint256)": {
        "encoding": "mapping",
        "key": "t_uint256",
        "label": "mapping(uint256 => uint256)",
        "numberOfBytes": "32",
        "value": "t_uint256"
      },
      "t_mapping(t_uint64,t_bytes32)": {
        "encoding": "mapping",
        "key": "t_uint64",
        "label": "mapping(uint64 => bytes32)",
        "numberOfBytes": "32",
        "value": "t_bytes32"
      },
      "t_string_storage": {
        "encoding": "bytes",
        "label": "string",
        "numberOfBytes": "32"
      },
      "t_struct(StoredCredit)27459_storage": {
        "encoding": "inplace",
        "label": "struct ONFT721Core.StoredCredit",
        "members": [
          {
            "astId": 27452,
            "contract": "contracts/examples/LayerSync.sol:LayerSyncONFT",
            "label": "srcChainId",
            "offset": 0,
            "slot": "0",
            "type": "t_uint16"
          },
          {
            "astId": 27454,
            "contract": "contracts/examples/LayerSync.sol:LayerSyncONFT",
            "label": "toAddress",
            "offset": 2,
            "slot": "0",
            "type": "t_address"
          },
          {
            "astId": 27456,
            "contract": "contracts/examples/LayerSync.sol:LayerSyncONFT",
            "label": "index",
            "offset": 0,
            "slot": "1",
            "type": "t_uint256"
          },
          {
            "astId": 27458,
            "contract": "contracts/examples/LayerSync.sol:LayerSyncONFT",
            "label": "creditsRemain",
            "offset": 0,
            "slot": "2",
            "type": "t_bool"
          }
        ],
        "numberOfBytes": "96"
      },
      "t_uint16": {
        "encoding": "inplace",
        "label": "uint16",
        "numberOfBytes": "2"
      },
      "t_uint256": {
        "encoding": "inplace",
        "label": "uint256",
        "numberOfBytes": "32"
      },
      "t_uint64": {
        "encoding": "inplace",
        "label": "uint64",
        "numberOfBytes": "8"
      }
    }
  }
}